:1000000018C032C031C030C02FC02EC02DC02CC08F
:100010002BC04CC029C03AC327C00DC325C024C083
:1000200023C022C021C03F065B4F666D7D077F6FF6
:10003000400011241FBECFE5D4E0DEBFCDBF10E0ED
:10004000A0E6B0E0EEE7F7E002C005900D92A2371F
:10005000B107D9F720E0A2E7B0E001C01D92AF3BA5
:10006000B207E1F76AD189C3CBCF81B38F7381BB6C
:1000700082B3806C82BB8FEF87BB84B3886384BB01
:1000800085B3877C85BB8C9A789480E090E050D3D0
:100090009093790080937800089583B7856083BF3B
:1000A00088EF82BF89B7816089BF08951F920F9240
:1000B0000FB60F9211248F939F9388EF82BF809188
:1000C000640081508093640080916300815080932C
:1000D0006300809162008150809362008091600093
:1000E00090916100019790936100809360008091EE
:1000F0006400811108C08FE08093640080918E00BD
:10010000816080938E0080916300811108C085E03A
:100110008093630080918E00826080938E00809136
:100120006200811108C08AE08093620080918E0095
:10013000846080938E008091600090916100892B93
:1001400059F484EF91E09093610080936000809176
:100150008F00816080938F0080917600909177006E
:10016000892BA1F080917600909177000197909370
:100170007700809376008091760090917700892BAC
:1001800029F480918E00886080938E0080917400A5
:1001900090917500892BA1F0809174009091750069
:1001A00001979093750080937400809174009091F2
:1001B0007500892B29F480918E008F7B80938E00AF
:1001C0009F918F910F900FBE0F901F901895879B56
:1001D0000AC0869B0AC01092730080918E008E7FA9
:1001E00080938E00089591E001C092E080917300A9
:1001F0008E3130F08150809373009093A600EDCF44
:10020000813011F49093A6008F5F80937300E5CF47
:1002100085B3877C85BB80917200811102C0AD9A45
:1002200003C0813069F4AC9AE0917200F0E0E955C6
:10023000FF4FE181F0E0EA5DFF4FE491E8BB12C0BF
:10024000823081F4AB9AE0917200F0E0E955FF4F03
:10025000E181F0E0EA5DFF4FE491E8BB80918E0020
:1002600087FDC79A809172008F5F833018F4809366
:10027000720002C01092720080918E008D7F809378
:100280008E00089586B1866886B987B1806C87B97B
:10029000089597B19F7397B997B1892B87B98AE170
:1002A0008A95F1F700C0369A349BFECF349A80913C
:1002B0008E008B7F80938E0084B195B10895FC01F0
:1002C000209190003091910023503109263E334017
:1002D00050F08AE08093A7008093A8008093A90043
:1002E0008093AA000895CF0164E670E0FAD160938C
:1002F000A8002AE030E0CF01B901F3D1482FCB01AB
:10030000B901EFD18093A9004093AA00089580918C
:100310008E0085FF0CC0609178007091790080E0BC
:1003200090E00BD280918E008F7D80938E00809123
:100330008E00877F80938E000895AFDEA3DF26D1E5
:1003400094DE80ED97E09093750080937400809127
:100350008E00806480938E0085E690E044D198E121
:10036000592E21E1822E912C38E1E32EF12CC8EB9D
:10037000DBE000ED17E04AEFC42ED12C59E1A52EA9
:10038000B12CBAE06B2E81E1782E80918E0080FF37
:1003900038C01DDF8091A600813069F4809178001B
:1003A0009091790001968B3F910574F0D09279007D
:1003B000C092780012C0823011F58091780090913F
:1003C0007900019797FD05C090937900809378009C
:1003D00004C01092790010927800D0937700C093F7
:1003E000760080918E00806280938E00109375005D
:1003F0000093740080918E00806480938E00109230
:10040000A60080918E0082FF73C080E042DFFC0175
:100410009093910080939000209178003091790022
:10042000529EC001539E900D1124B4016ED1809153
:10043000AF009091B0000196823391052CF4909317
:10044000B0008093AF0004C01092B0001092AF00D3
:100450006E1B7F0B7093B6006093B5008091AD006A
:100460009091AE009B01281B390B3093B200209372
:10047000B1008091B3009091B400669EA001679E88
:10048000500D1124480F591F220F331F240F351F01
:100490003093B8002093B7002A31310530F4860F2D
:1004A000971F9093B4008093B3008091B300909114
:1004B000B4004A9724F0B092B400A092B3007093B5
:1004C000AE006093AD008091AF009091B00028170E
:1004D00039071CF0E93EF3402CF0949880918E008F
:1004E0008F7704C0949A80918E00806880938E00EC
:1004F00080918E0086FF05C08091780090917900F0
:1005000004C08091AB009091AC00D9DE80918E0048
:1005100081FD7EDE80918F0080FF14C080918F006E
:100520008E7F80938F002091900030919100729E79
:10053000C001739E900D1124B701E7D07093AC00F9
:100540006093AB0080918E0083FDE1DE57D088235D
:1005500009F41BCF843589F48CE690E044D0809177
:10056000A800805D1DD08091A900805D19D0809188
:10057000AA00805D15D08DE007C0893421F48091F8
:10058000B300805D01C08FE30BD0FBCE89E189B958
:1005900010BC80B5866880BD8AB1886D8AB908951F
:1005A0005D9B06C09091BC00911102C08CB908956A
:1005B0009091BC009431B0F49091BC009F5F9093F7
:1005C000BC00E091BA00F0E0EE56FF4F80838091CE
:1005D000BA008F5F8093BA008091BA00843111F421
:1005E0001092BA000895CF93DF93EC01899188238C
:1005F00011F0D6DFFBCFDF91CF9108958091BE003F
:100600008823B9F0E091BB00F0E0E658FF4F80810D
:100610009091BE0091509093BE009091BB009F5F5F
:100620009093BB009091BB00943121F41092BB00D9
:10063000089580E008951F920F920FB60F92112433
:100640008F93EF93FF938091BC008823B9F0E091E2
:10065000BD00F0E0EE56FF4F80818CB98091BC0068
:1006600081508093BC008091BD008F5F8093BD005E
:100670008091BD00843111F41092BD00FF91EF9183
:100680008F910F900FBE0F901F9018951F920F9291
:100690000FB60F9211248F93EF93FF938091BE00BA
:1006A0008431B8F4E091B900F0E08CB1E658FF4F26
:1006B00080838091B9008F5F8093B9008091BE00E4
:1006C0008F5F8093BE008091B900843111F4109245
:1006D000B900FF91EF918F910F900FBE0F901F9077
:1006E0001895AA1BBB1B51E107C0AA1FBB1FA61769
:1006F000B70710F0A61BB70B881F991F5A95A9F7CB
:1007000080959095BC01CD01089597FB072E16F4B6
:10071000009406D077FD08D0E4DF07FC05D03EF456
:10072000909581959F4F0895709561957F4F08959D
:10073000A8E1B0E042E050E005C012D0272F11C080
:10074000DC01CB01FC01E199FECF06C0FFBBEEBB93
:10075000E09A31960DB20D9241505040B8F708958D
:10076000262FE199FECF9FBB8EBB2DBB0FB6F89411
:0E077000E29AE19A0FBE01960895F894FFCF29
:10077E00F4010A050F48656C6C6F210054656D70AD
:02078E003D002C
:00000001FF
